{
  "address": "0x2D7D2B5fb66D414aD5dac757361139f230A92D4c",
  "abi": [
    {
      "inputs": [
        {
          "internalType": "address",
          "name": "newOwner",
          "type": "address"
        },
        {
          "internalType": "uint256",
          "name": "_loanAmount",
          "type": "uint256"
        },
        {
          "internalType": "uint256",
          "name": "_interestRate",
          "type": "uint256"
        },
        {
          "internalType": "uint256",
          "name": "_loanDuration",
          "type": "uint256"
        },
        {
          "internalType": "string",
          "name": "_rwaCollateralAgreementHash",
          "type": "string"
        }
      ],
      "stateMutability": "nonpayable",
      "type": "constructor"
    },
    {
      "anonymous": false,
      "inputs": [
        {
          "indexed": true,
          "internalType": "address",
          "name": "nftAddress",
          "type": "address"
        },
        {
          "indexed": true,
          "internalType": "uint256",
          "name": "tokenId",
          "type": "uint256"
        }
      ],
      "name": "CollateralLocked",
      "type": "event"
    },
    {
      "anonymous": false,
      "inputs": [
        {
          "indexed": true,
          "internalType": "address",
          "name": "nftAddress",
          "type": "address"
        },
        {
          "indexed": true,
          "internalType": "uint256",
          "name": "tokenId",
          "type": "uint256"
        }
      ],
      "name": "CollateralReleased",
      "type": "event"
    },
    {
      "anonymous": false,
      "inputs": [
        {
          "indexed": true,
          "internalType": "address",
          "name": "previousOwner",
          "type": "address"
        },
        {
          "indexed": true,
          "internalType": "address",
          "name": "newOwner",
          "type": "address"
        }
      ],
      "name": "OwnershipTransferred",
      "type": "event"
    },
    {
      "anonymous": false,
      "inputs": [
        {
          "indexed": false,
          "internalType": "string",
          "name": "agreementHash",
          "type": "string"
        }
      ],
      "name": "RWACollateralAgreementAdded",
      "type": "event"
    },
    {
      "inputs": [],
      "name": "interestRate",
      "outputs": [
        {
          "internalType": "uint256",
          "name": "",
          "type": "uint256"
        }
      ],
      "stateMutability": "view",
      "type": "function"
    },
    {
      "inputs": [],
      "name": "isLocked",
      "outputs": [
        {
          "internalType": "bool",
          "name": "",
          "type": "bool"
        }
      ],
      "stateMutability": "view",
      "type": "function"
    },
    {
      "inputs": [],
      "name": "loanAmount",
      "outputs": [
        {
          "internalType": "uint256",
          "name": "",
          "type": "uint256"
        }
      ],
      "stateMutability": "view",
      "type": "function"
    },
    {
      "inputs": [],
      "name": "loanDuration",
      "outputs": [
        {
          "internalType": "uint256",
          "name": "",
          "type": "uint256"
        }
      ],
      "stateMutability": "view",
      "type": "function"
    },
    {
      "inputs": [
        {
          "internalType": "address",
          "name": "nftAddress",
          "type": "address"
        },
        {
          "internalType": "uint256",
          "name": "_tokenId",
          "type": "uint256"
        }
      ],
      "name": "lockCollateral",
      "outputs": [],
      "stateMutability": "nonpayable",
      "type": "function"
    },
    {
      "inputs": [],
      "name": "nftAddress",
      "outputs": [
        {
          "internalType": "address",
          "name": "",
          "type": "address"
        }
      ],
      "stateMutability": "view",
      "type": "function"
    },
    {
      "inputs": [
        {
          "internalType": "address",
          "name": "",
          "type": "address"
        },
        {
          "internalType": "address",
          "name": "",
          "type": "address"
        },
        {
          "internalType": "uint256",
          "name": "",
          "type": "uint256"
        },
        {
          "internalType": "bytes",
          "name": "",
          "type": "bytes"
        }
      ],
      "name": "onERC721Received",
      "outputs": [
        {
          "internalType": "bytes4",
          "name": "",
          "type": "bytes4"
        }
      ],
      "stateMutability": "nonpayable",
      "type": "function"
    },
    {
      "inputs": [],
      "name": "owner",
      "outputs": [
        {
          "internalType": "address",
          "name": "",
          "type": "address"
        }
      ],
      "stateMutability": "view",
      "type": "function"
    },
    {
      "inputs": [],
      "name": "releaseCollateral",
      "outputs": [],
      "stateMutability": "nonpayable",
      "type": "function"
    },
    {
      "inputs": [],
      "name": "renounceOwnership",
      "outputs": [],
      "stateMutability": "nonpayable",
      "type": "function"
    },
    {
      "inputs": [],
      "name": "rwaCollateralAgreementHash",
      "outputs": [
        {
          "internalType": "string",
          "name": "",
          "type": "string"
        }
      ],
      "stateMutability": "view",
      "type": "function"
    },
    {
      "inputs": [],
      "name": "tokenId",
      "outputs": [
        {
          "internalType": "uint256",
          "name": "",
          "type": "uint256"
        }
      ],
      "stateMutability": "view",
      "type": "function"
    },
    {
      "inputs": [
        {
          "internalType": "address",
          "name": "newOwner",
          "type": "address"
        }
      ],
      "name": "transferOwnership",
      "outputs": [],
      "stateMutability": "nonpayable",
      "type": "function"
    },
    {
      "inputs": [
        {
          "internalType": "uint256",
          "name": "_interestRate",
          "type": "uint256"
        }
      ],
      "name": "updateInterestRate",
      "outputs": [],
      "stateMutability": "nonpayable",
      "type": "function"
    },
    {
      "inputs": [
        {
          "internalType": "uint256",
          "name": "_loanAmount",
          "type": "uint256"
        }
      ],
      "name": "updateLoanAmount",
      "outputs": [],
      "stateMutability": "nonpayable",
      "type": "function"
    },
    {
      "inputs": [
        {
          "internalType": "uint256",
          "name": "_loanDuration",
          "type": "uint256"
        }
      ],
      "name": "updateLoanDuration",
      "outputs": [],
      "stateMutability": "nonpayable",
      "type": "function"
    }
  ],
  "transactionHash": "0x38b98d5e7368f1d2e94b9205e309e88d8a3b60aecbd062247d98200ebcab8777",
  "args": [
    "0xe48d6Ca9eca86620682133B311c6B03838e276B8",
    "1000000000000000000",
    500,
    2592000,
    "0xb3b206c9e6761e8bca64b4682089d0f1a8f3a12bfa731a6c06f2dfa5783a4cde"
  ],
  "numDeployments": 3,
  "solcInputHash": "81a8a055a8f3615b6d5d69531bdb825d",
  "bytecode": "0x60806040523480156200001157600080fd5b5060405162000e9a38038062000e9a8339810160408190526200003491620001c1565b6001600055620000443362000078565b60088490556009839055600a829055600762000061828262000364565b506200006d85620000ca565b505050505062000430565b600180546001600160a01b038381166001600160a01b0319831681179093556040519116919082907f8be0079c531659141344cd1fd0a4f28419497f9722a3daafe3b4186f6b6457e090600090a35050565b620000d46200014d565b6001600160a01b0381166200013f5760405162461bcd60e51b815260206004820152602660248201527f4f776e61626c653a206e6577206f776e657220697320746865207a65726f206160448201526564647265737360d01b60648201526084015b60405180910390fd5b6200014a8162000078565b50565b6001546001600160a01b03163314620001a95760405162461bcd60e51b815260206004820181905260248201527f4f776e61626c653a2063616c6c6572206973206e6f7420746865206f776e6572604482015260640162000136565b565b634e487b7160e01b600052604160045260246000fd5b600080600080600060a08688031215620001da57600080fd5b85516001600160a01b0381168114620001f257600080fd5b602087810151604089015160608a015160808b015194995091975095509350906001600160401b03808211156200022857600080fd5b818901915089601f8301126200023d57600080fd5b815181811115620002525762000252620001ab565b604051601f8201601f19908116603f011681019083821181831017156200027d576200027d620001ab565b816040528281528c868487010111156200029657600080fd5b600093505b82841015620002ba57848401860151818501870152928501926200029b565b60008684830101528096505050505050509295509295909350565b600181811c90821680620002ea57607f821691505b6020821081036200030b57634e487b7160e01b600052602260045260246000fd5b50919050565b601f8211156200035f57600081815260208120601f850160051c810160208610156200033a5750805b601f850160051c820191505b818110156200035b5782815560010162000346565b5050505b505050565b81516001600160401b03811115620003805762000380620001ab565b6200039881620003918454620002d5565b8462000311565b602080601f831160018114620003d05760008415620003b75750858301515b600019600386901b1c1916600185901b1785556200035b565b600085815260208120601f198616915b828110156200040157888601518255948401946001909101908401620003e0565b5085821015620004205787850151600019600388901b60f8161c191681555b5050505050600190811b01905550565b610a5a80620004406000396000f3fe608060405234801561001057600080fd5b50600436106101005760003560e01c80637c3a00fd11610097578063ba43a92211610066578063ba43a9221461020e578063eb75cad514610221578063f2fde38b14610236578063f5521bf11461024957600080fd5b80637c3a00fd146101ce5780638da5cb5b146101d75780639d585f7f146101e8578063a4e2d634146101f157600080fd5b80635bf8633a116100d35780635bf8633a146101805780636665b621146101ab578063715018a6146101b3578063752a50a6146101bb57600080fd5b8063150b7a021461010557806317d70f7c1461014157806347a7d107146101585780634c6de5c91461016d575b600080fd5b610123610113366004610836565b630a85bd0160e11b949350505050565b6040516001600160e01b031990911681526020015b60405180910390f35b61014a60055481565b604051908152602001610138565b61016b610166366004610916565b610252565b005b61016b61017b366004610942565b610483565b600454610193906001600160a01b031681565b6040516001600160a01b039091168152602001610138565b61016b610490565b61016b6105d3565b61016b6101c9366004610942565b6105e5565b61014a60095481565b6001546001600160a01b0316610193565b61014a60085481565b6006546101fe9060ff1681565b6040519015158152602001610138565b61016b61021c366004610942565b6105f2565b6102296105ff565b604051610138919061095b565b61016b6102443660046109a9565b61068d565b61014a600a5481565b61025a610706565b61026261075f565b60065460ff16156102c65760405162461bcd60e51b815260206004820152602360248201527f4e465420697320616c7265616479206c6f636b656420617320636f6c6c6174656044820152621c985b60ea1b60648201526084015b60405180910390fd5b816102d96001546001600160a01b031690565b6040516331a9108f60e11b8152600481018490526001600160a01b0391821691831690636352211e90602401602060405180830381865afa158015610322573d6000803e3d6000fd5b505050506040513d601f19601f8201168201806040525081019061034691906109cd565b6001600160a01b0316146103a85760405162461bcd60e51b815260206004820152602360248201527f436f6e7472616374206f776e657220646f6573206e6f74206f776e207468652060448201526213919560ea1b60648201526084016102bd565b806001600160a01b03166342842e0e6103c96001546001600160a01b031690565b6005546040516001600160e01b031960e085901b1681526001600160a01b0390921660048301523060248301526044820152606401600060405180830381600087803b15801561041857600080fd5b505af115801561042c573d6000803e3d6000fd5b50506006805460ff1916600117905550506005546040516001600160a01b038516907f2251f6a4ed7fe619e9e8ce557d05a63dd484284f9c95c9ab334f6a7707cd080090600090a35061047f6001600055565b5050565b61048b61075f565b600855565b610498610706565b6104a061075f565b60065460ff166104f25760405162461bcd60e51b815260206004820152601f60248201527f4e4654206973206e6f74206c6f636b656420617320636f6c6c61746572616c0060448201526064016102bd565b6004546001600160a01b0316806342842e0e306105176001546001600160a01b031690565b6005546040516001600160e01b031960e086901b1681526001600160a01b0393841660048201529290911660248301526044820152606401600060405180830381600087803b15801561056957600080fd5b505af115801561057d573d6000803e3d6000fd5b50506006805460ff1916905550506005546004546040516001600160a01b03909116907f15192ee5c95e01de0681c61d6cbfa4b8d1e4c160294017332eb7d6e5c4ea38b790600090a3506105d16001600055565b565b6105db61075f565b6105d160006107b9565b6105ed61075f565b600955565b6105fa61075f565b600a55565b6007805461060c906109ea565b80601f0160208091040260200160405190810160405280929190818152602001828054610638906109ea565b80156106855780601f1061065a57610100808354040283529160200191610685565b820191906000526020600020905b81548152906001019060200180831161066857829003601f168201915b505050505081565b61069561075f565b6001600160a01b0381166106fa5760405162461bcd60e51b815260206004820152602660248201527f4f776e61626c653a206e6577206f776e657220697320746865207a65726f206160448201526564647265737360d01b60648201526084016102bd565b610703816107b9565b50565b6002600054036107585760405162461bcd60e51b815260206004820152601f60248201527f5265656e7472616e637947756172643a207265656e7472616e742063616c6c0060448201526064016102bd565b6002600055565b6001546001600160a01b031633146105d15760405162461bcd60e51b815260206004820181905260248201527f4f776e61626c653a2063616c6c6572206973206e6f7420746865206f776e657260448201526064016102bd565b600180546001600160a01b038381166001600160a01b0319831681179093556040519116919082907f8be0079c531659141344cd1fd0a4f28419497f9722a3daafe3b4186f6b6457e090600090a35050565b6001600160a01b038116811461070357600080fd5b634e487b7160e01b600052604160045260246000fd5b6000806000806080858703121561084c57600080fd5b84356108578161080b565b935060208501356108678161080b565b925060408501359150606085013567ffffffffffffffff8082111561088b57600080fd5b818701915087601f83011261089f57600080fd5b8135818111156108b1576108b1610820565b604051601f8201601f19908116603f011681019083821181831017156108d9576108d9610820565b816040528281528a60208487010111156108f257600080fd5b82602086016020830137600060208483010152809550505050505092959194509250565b6000806040838503121561092957600080fd5b82356109348161080b565b946020939093013593505050565b60006020828403121561095457600080fd5b5035919050565b600060208083528351808285015260005b818110156109885785810183015185820160400152820161096c565b506000604082860101526040601f19601f8301168501019250505092915050565b6000602082840312156109bb57600080fd5b81356109c68161080b565b9392505050565b6000602082840312156109df57600080fd5b81516109c68161080b565b600181811c908216806109fe57607f821691505b602082108103610a1e57634e487b7160e01b600052602260045260246000fd5b5091905056fea264697066735822122051e4895a2cdc3db459a511ecf63244a6761302d65e9cc55ffe7690222189ddba64736f6c63430008110033",
  "devdoc": {
    "author": "Mehdi R. ",
    "details": "The contract allows to deposit RWA collateral agreement signed via ETHSign",
    "kind": "dev",
    "methods": {
      "lockCollateral(address,uint256)": {
        "params": {
          "_tokenId": "- the tokenId of the NFT",
          "nftAddress": "- the address of the NFT"
        }
      },
      "onERC721Received(address,address,uint256,bytes)": {
        "details": "See {IERC721Receiver-onERC721Received}. Always returns `IERC721Receiver.onERC721Received.selector`."
      },
      "owner()": {
        "details": "Returns the address of the current owner."
      },
      "renounceOwnership()": {
        "details": "Leaves the contract without owner. It will not be possible to call `onlyOwner` functions. Can only be called by the current owner. NOTE: Renouncing ownership will leave the contract without an owner, thereby disabling any functionality that is only available to the owner."
      },
      "transferOwnership(address)": {
        "details": "Transfers ownership of the contract to a new account (`newOwner`). Can only be called by the current owner."
      }
    },
    "title": "SignedNFTAgreement ",
    "version": 1
  },
  "userdoc": {
    "kind": "user",
    "methods": {},
    "notice": "Receives NFTs as collateral for a loan and releases them when the loan is repaid ",
    "version": 1
  },
  "storageLayout": {
    "storage": [
      {
        "astId": 123,
        "contract": "contracts/SignedNFTAgreement.sol:SignedNFTAgreement",
        "label": "_status",
        "offset": 0,
        "slot": "0",
        "type": "t_uint256"
      },
      {
        "astId": 7,
        "contract": "contracts/SignedNFTAgreement.sol:SignedNFTAgreement",
        "label": "_owner",
        "offset": 0,
        "slot": "1",
        "type": "t_address"
      },
      {
        "astId": 395,
        "contract": "contracts/SignedNFTAgreement.sol:SignedNFTAgreement",
        "label": "sender",
        "offset": 0,
        "slot": "2",
        "type": "t_address_payable"
      },
      {
        "astId": 397,
        "contract": "contracts/SignedNFTAgreement.sol:SignedNFTAgreement",
        "label": "buyer",
        "offset": 0,
        "slot": "3",
        "type": "t_address_payable"
      },
      {
        "astId": 399,
        "contract": "contracts/SignedNFTAgreement.sol:SignedNFTAgreement",
        "label": "nftAddress",
        "offset": 0,
        "slot": "4",
        "type": "t_address"
      },
      {
        "astId": 401,
        "contract": "contracts/SignedNFTAgreement.sol:SignedNFTAgreement",
        "label": "tokenId",
        "offset": 0,
        "slot": "5",
        "type": "t_uint256"
      },
      {
        "astId": 403,
        "contract": "contracts/SignedNFTAgreement.sol:SignedNFTAgreement",
        "label": "isLocked",
        "offset": 0,
        "slot": "6",
        "type": "t_bool"
      },
      {
        "astId": 405,
        "contract": "contracts/SignedNFTAgreement.sol:SignedNFTAgreement",
        "label": "rwaCollateralAgreementHash",
        "offset": 0,
        "slot": "7",
        "type": "t_string_storage"
      },
      {
        "astId": 407,
        "contract": "contracts/SignedNFTAgreement.sol:SignedNFTAgreement",
        "label": "loanAmount",
        "offset": 0,
        "slot": "8",
        "type": "t_uint256"
      },
      {
        "astId": 409,
        "contract": "contracts/SignedNFTAgreement.sol:SignedNFTAgreement",
        "label": "interestRate",
        "offset": 0,
        "slot": "9",
        "type": "t_uint256"
      },
      {
        "astId": 411,
        "contract": "contracts/SignedNFTAgreement.sol:SignedNFTAgreement",
        "label": "loanDuration",
        "offset": 0,
        "slot": "10",
        "type": "t_uint256"
      }
    ],
    "types": {
      "t_address": {
        "encoding": "inplace",
        "label": "address",
        "numberOfBytes": "20"
      },
      "t_address_payable": {
        "encoding": "inplace",
        "label": "address payable",
        "numberOfBytes": "20"
      },
      "t_bool": {
        "encoding": "inplace",
        "label": "bool",
        "numberOfBytes": "1"
      },
      "t_string_storage": {
        "encoding": "bytes",
        "label": "string",
        "numberOfBytes": "32"
      },
      "t_uint256": {
        "encoding": "inplace",
        "label": "uint256",
        "numberOfBytes": "32"
      }
    }
  }
}